{
  "_format": "hh-sol-artifact-1",
  "contractName": "Mint",
  "sourceName": "contracts/Mint.sol",
  "abi": [
    {
      "inputs": [
        {
          "internalType": "uint256",
          "name": "_price",
          "type": "uint256"
        }
      ],
      "stateMutability": "nonpayable",
      "type": "constructor"
    },
    {
      "inputs": [],
      "name": "ApprovalCallerNotOwnerNorApproved",
      "type": "error"
    },
    {
      "inputs": [],
      "name": "ApprovalQueryForNonexistentToken",
      "type": "error"
    },
    {
      "inputs": [],
      "name": "ApproveToCaller",
      "type": "error"
    },
    {
      "inputs": [],
      "name": "BalanceQueryForZeroAddress",
      "type": "error"
    },
    {
      "inputs": [],
      "name": "MintERC2309QuantityExceedsLimit",
      "type": "error"
    },
    {
      "inputs": [],
      "name": "MintToZeroAddress",
      "type": "error"
    },
    {
      "inputs": [],
      "name": "MintZeroQuantity",
      "type": "error"
    },
    {
      "inputs": [],
      "name": "OwnerQueryForNonexistentToken",
      "type": "error"
    },
    {
      "inputs": [],
      "name": "OwnershipNotInitializedForExtraData",
      "type": "error"
    },
    {
      "inputs": [],
      "name": "TransferCallerNotOwnerNorApproved",
      "type": "error"
    },
    {
      "inputs": [],
      "name": "TransferFromIncorrectOwner",
      "type": "error"
    },
    {
      "inputs": [],
      "name": "TransferToNonERC721ReceiverImplementer",
      "type": "error"
    },
    {
      "inputs": [],
      "name": "TransferToZeroAddress",
      "type": "error"
    },
    {
      "inputs": [],
      "name": "URIQueryForNonexistentToken",
      "type": "error"
    },
    {
      "anonymous": false,
      "inputs": [
        {
          "indexed": true,
          "internalType": "address",
          "name": "owner",
          "type": "address"
        },
        {
          "indexed": true,
          "internalType": "address",
          "name": "approved",
          "type": "address"
        },
        {
          "indexed": true,
          "internalType": "uint256",
          "name": "tokenId",
          "type": "uint256"
        }
      ],
      "name": "Approval",
      "type": "event"
    },
    {
      "anonymous": false,
      "inputs": [
        {
          "indexed": true,
          "internalType": "address",
          "name": "owner",
          "type": "address"
        },
        {
          "indexed": true,
          "internalType": "address",
          "name": "operator",
          "type": "address"
        },
        {
          "indexed": false,
          "internalType": "bool",
          "name": "approved",
          "type": "bool"
        }
      ],
      "name": "ApprovalForAll",
      "type": "event"
    },
    {
      "anonymous": false,
      "inputs": [
        {
          "indexed": true,
          "internalType": "uint256",
          "name": "fromTokenId",
          "type": "uint256"
        },
        {
          "indexed": false,
          "internalType": "uint256",
          "name": "toTokenId",
          "type": "uint256"
        },
        {
          "indexed": true,
          "internalType": "address",
          "name": "from",
          "type": "address"
        },
        {
          "indexed": true,
          "internalType": "address",
          "name": "to",
          "type": "address"
        }
      ],
      "name": "ConsecutiveTransfer",
      "type": "event"
    },
    {
      "anonymous": false,
      "inputs": [
        {
          "indexed": true,
          "internalType": "address",
          "name": "from",
          "type": "address"
        },
        {
          "indexed": true,
          "internalType": "address",
          "name": "to",
          "type": "address"
        },
        {
          "indexed": true,
          "internalType": "uint256",
          "name": "tokenId",
          "type": "uint256"
        }
      ],
      "name": "Transfer",
      "type": "event"
    },
    {
      "inputs": [
        {
          "internalType": "address",
          "name": "to",
          "type": "address"
        },
        {
          "internalType": "uint256",
          "name": "tokenId",
          "type": "uint256"
        }
      ],
      "name": "approve",
      "outputs": [],
      "stateMutability": "nonpayable",
      "type": "function"
    },
    {
      "inputs": [
        {
          "internalType": "address",
          "name": "owner",
          "type": "address"
        }
      ],
      "name": "balanceOf",
      "outputs": [
        {
          "internalType": "uint256",
          "name": "",
          "type": "uint256"
        }
      ],
      "stateMutability": "view",
      "type": "function"
    },
    {
      "inputs": [
        {
          "internalType": "uint256",
          "name": "tokenId",
          "type": "uint256"
        }
      ],
      "name": "getApproved",
      "outputs": [
        {
          "internalType": "address",
          "name": "",
          "type": "address"
        }
      ],
      "stateMutability": "view",
      "type": "function"
    },
    {
      "inputs": [
        {
          "internalType": "address",
          "name": "owner",
          "type": "address"
        },
        {
          "internalType": "address",
          "name": "operator",
          "type": "address"
        }
      ],
      "name": "isApprovedForAll",
      "outputs": [
        {
          "internalType": "bool",
          "name": "",
          "type": "bool"
        }
      ],
      "stateMutability": "view",
      "type": "function"
    },
    {
      "inputs": [
        {
          "internalType": "uint256",
          "name": "quantity",
          "type": "uint256"
        }
      ],
      "name": "mint",
      "outputs": [],
      "stateMutability": "payable",
      "type": "function"
    },
    {
      "inputs": [],
      "name": "name",
      "outputs": [
        {
          "internalType": "string",
          "name": "",
          "type": "string"
        }
      ],
      "stateMutability": "view",
      "type": "function"
    },
    {
      "inputs": [
        {
          "internalType": "uint256",
          "name": "tokenId",
          "type": "uint256"
        }
      ],
      "name": "ownerOf",
      "outputs": [
        {
          "internalType": "address",
          "name": "",
          "type": "address"
        }
      ],
      "stateMutability": "view",
      "type": "function"
    },
    {
      "inputs": [
        {
          "internalType": "address",
          "name": "from",
          "type": "address"
        },
        {
          "internalType": "address",
          "name": "to",
          "type": "address"
        },
        {
          "internalType": "uint256",
          "name": "tokenId",
          "type": "uint256"
        }
      ],
      "name": "safeTransferFrom",
      "outputs": [],
      "stateMutability": "nonpayable",
      "type": "function"
    },
    {
      "inputs": [
        {
          "internalType": "address",
          "name": "from",
          "type": "address"
        },
        {
          "internalType": "address",
          "name": "to",
          "type": "address"
        },
        {
          "internalType": "uint256",
          "name": "tokenId",
          "type": "uint256"
        },
        {
          "internalType": "bytes",
          "name": "_data",
          "type": "bytes"
        }
      ],
      "name": "safeTransferFrom",
      "outputs": [],
      "stateMutability": "nonpayable",
      "type": "function"
    },
    {
      "inputs": [
        {
          "internalType": "address",
          "name": "operator",
          "type": "address"
        },
        {
          "internalType": "bool",
          "name": "approved",
          "type": "bool"
        }
      ],
      "name": "setApprovalForAll",
      "outputs": [],
      "stateMutability": "nonpayable",
      "type": "function"
    },
    {
      "inputs": [
        {
          "internalType": "bytes4",
          "name": "interfaceId",
          "type": "bytes4"
        }
      ],
      "name": "supportsInterface",
      "outputs": [
        {
          "internalType": "bool",
          "name": "",
          "type": "bool"
        }
      ],
      "stateMutability": "view",
      "type": "function"
    },
    {
      "inputs": [],
      "name": "symbol",
      "outputs": [
        {
          "internalType": "string",
          "name": "",
          "type": "string"
        }
      ],
      "stateMutability": "view",
      "type": "function"
    },
    {
      "inputs": [
        {
          "internalType": "uint256",
          "name": "tokenId",
          "type": "uint256"
        }
      ],
      "name": "tokenURI",
      "outputs": [
        {
          "internalType": "string",
          "name": "",
          "type": "string"
        }
      ],
      "stateMutability": "view",
      "type": "function"
    },
    {
      "inputs": [],
      "name": "totalSupply",
      "outputs": [
        {
          "internalType": "uint256",
          "name": "",
          "type": "uint256"
        }
      ],
      "stateMutability": "view",
      "type": "function"
    },
    {
      "inputs": [
        {
          "internalType": "address",
          "name": "from",
          "type": "address"
        },
        {
          "internalType": "address",
          "name": "to",
          "type": "address"
        },
        {
          "internalType": "uint256",
          "name": "tokenId",
          "type": "uint256"
        }
      ],
      "name": "transferFrom",
      "outputs": [],
      "stateMutability": "nonpayable",
      "type": "function"
    },
    {
      "inputs": [
        {
          "internalType": "address",
          "name": "wallet",
          "type": "address"
        }
      ],
      "name": "walletMinted",
      "outputs": [
        {
          "internalType": "bool",
          "name": "",
          "type": "bool"
        }
      ],
      "stateMutability": "view",
      "type": "function"
    }
  ],
  "bytecode": "0x60806040523480156200001157600080fd5b506040516200201d3803806200201d8339818101604052810190620000379190620001c0565b6040518060400160405280600481526020017f6d696e74000000000000000000000000000000000000000000000000000000008152506040518060400160405280600481526020017f6d696e74000000000000000000000000000000000000000000000000000000008152508160029080519060200190620000bb929190620000f9565b508060039080519060200190620000d4929190620000f9565b50620000e5620000f460201b60201c565b60008190555050505062000280565b600090565b8280546200010790620001fc565b90600052602060002090601f0160209004810192826200012b576000855562000177565b82601f106200014657805160ff191683800117855562000177565b8280016001018555821562000177579182015b828111156200017657825182559160200191906001019062000159565b5b5090506200018691906200018a565b5090565b5b80821115620001a55760008160009055506001016200018b565b5090565b600081519050620001ba8162000266565b92915050565b600060208284031215620001d957620001d862000261565b5b6000620001e984828501620001a9565b91505092915050565b6000819050919050565b600060028204905060018216806200021557607f821691505b602082108114156200022c576200022b62000232565b5b50919050565b7f4e487b7100000000000000000000000000000000000000000000000000000000600052602260045260246000fd5b600080fd5b6200027181620001f2565b81146200027d57600080fd5b50565b611d8d80620002906000396000f3fe6080604052600436106100f35760003560e01c806370a082311161008a578063b88d4fde11610059578063b88d4fde1461032d578063c87b56dd14610356578063d3738fc814610393578063e985e9c5146103d0576100f3565b806370a082311461028057806395d89b41146102bd578063a0712d68146102e8578063a22cb46514610304576100f3565b806318160ddd116100c657806318160ddd146101c657806323b872dd146101f157806342842e0e1461021a5780636352211e14610243576100f3565b806301ffc9a7146100f857806306fdde0314610135578063081812fc14610160578063095ea7b31461019d575b600080fd5b34801561010457600080fd5b5061011f600480360381019061011a919061188c565b61040d565b60405161012c9190611a6e565b60405180910390f35b34801561014157600080fd5b5061014a61049f565b6040516101579190611a89565b60405180910390f35b34801561016c57600080fd5b50610187600480360381019061018291906118e6565b610531565b6040516101949190611a07565b60405180910390f35b3480156101a957600080fd5b506101c460048036038101906101bf919061184c565b6105ad565b005b3480156101d257600080fd5b506101db6106ee565b6040516101e89190611aab565b60405180910390f35b3480156101fd57600080fd5b5061021860048036038101906102139190611736565b610705565b005b34801561022657600080fd5b50610241600480360381019061023c9190611736565b610a2a565b005b34801561024f57600080fd5b5061026a600480360381019061026591906118e6565b610a4a565b6040516102779190611a07565b60405180910390f35b34801561028c57600080fd5b506102a760048036038101906102a291906116c9565b610a5c565b6040516102b49190611aab565b60405180910390f35b3480156102c957600080fd5b506102d2610b15565b6040516102df9190611a89565b60405180910390f35b61030260048036038101906102fd91906118e6565b610ba7565b005b34801561031057600080fd5b5061032b6004803603810190610326919061180c565b610c04565b005b34801561033957600080fd5b50610354600480360381019061034f9190611789565b610d7c565b005b34801561036257600080fd5b5061037d600480360381019061037891906118e6565b610def565b60405161038a9190611a89565b60405180910390f35b34801561039f57600080fd5b506103ba60048036038101906103b591906116c9565b610e8e565b6040516103c79190611a6e565b60405180910390f35b3480156103dc57600080fd5b506103f760048036038101906103f291906116f6565b610ee4565b6040516104049190611a6e565b60405180910390f35b60006301ffc9a760e01b827bffffffffffffffffffffffffffffffffffffffffffffffffffffffff1916148061046857506380ac58cd60e01b827bffffffffffffffffffffffffffffffffffffffffffffffffffffffff1916145b806104985750635b5e139f60e01b827bffffffffffffffffffffffffffffffffffffffffffffffffffffffff1916145b9050919050565b6060600280546104ae90611c15565b80601f01602080910402602001604051908101604052809291908181526020018280546104da90611c15565b80156105275780601f106104fc57610100808354040283529160200191610527565b820191906000526020600020905b81548152906001019060200180831161050a57829003601f168201915b5050505050905090565b600061053c82610f78565b610572576040517fcf4700e400000000000000000000000000000000000000000000000000000000815260040160405180910390fd5b6006600083815260200190815260200160002060009054906101000a900473ffffffffffffffffffffffffffffffffffffffff169050919050565b60006105b882610a4a565b90508073ffffffffffffffffffffffffffffffffffffffff166105d9610fd7565b73ffffffffffffffffffffffffffffffffffffffff161461063c5761060581610600610fd7565b610ee4565b61063b576040517fcfb3b94200000000000000000000000000000000000000000000000000000000815260040160405180910390fd5b5b826006600084815260200190815260200160002060006101000a81548173ffffffffffffffffffffffffffffffffffffffff021916908373ffffffffffffffffffffffffffffffffffffffff160217905550818373ffffffffffffffffffffffffffffffffffffffff168273ffffffffffffffffffffffffffffffffffffffff167f8c5be1e5ebec7d5bd14f71427d1e84f3dd0314c0f7b2291e5b200ac8c7c3b92560405160405180910390a4505050565b60006106f8610fdf565b6001546000540303905090565b600061071082610fe4565b90508373ffffffffffffffffffffffffffffffffffffffff168173ffffffffffffffffffffffffffffffffffffffff1614610777576040517fa114810000000000000000000000000000000000000000000000000000000000815260040160405180910390fd5b600080610783846110b2565b915091506107998187610794610fd7565b6110d4565b6107e5576107ae866107a9610fd7565b610ee4565b6107e4576040517f59c896be00000000000000000000000000000000000000000000000000000000815260040160405180910390fd5b5b600073ffffffffffffffffffffffffffffffffffffffff168573ffffffffffffffffffffffffffffffffffffffff16141561084c576040517fea553b3400000000000000000000000000000000000000000000000000000000815260040160405180910390fd5b6108598686866001611118565b801561086457600082555b600560008773ffffffffffffffffffffffffffffffffffffffff1673ffffffffffffffffffffffffffffffffffffffff168152602001908152602001600020600081546001900391905081905550600560008673ffffffffffffffffffffffffffffffffffffffff1673ffffffffffffffffffffffffffffffffffffffff16815260200190815260200160002060008154600101919050819055506109328561090e88888761111e565b7c020000000000000000000000000000000000000000000000000000000017611146565b600460008681526020019081526020016000208190555060007c0200000000000000000000000000000000000000000000000000000000841614156109ba5760006001850190506000600460008381526020019081526020016000205414156109b85760005481146109b7578360046000838152602001908152602001600020819055505b5b505b838573ffffffffffffffffffffffffffffffffffffffff168773ffffffffffffffffffffffffffffffffffffffff167fddf252ad1be2c89b69c2b068fc378daa952ba7f163c4a11628f55a4df523b3ef60405160405180910390a4610a228686866001611171565b505050505050565b610a4583838360405180602001604052806000815250610d7c565b505050565b6000610a5582610fe4565b9050919050565b60008073ffffffffffffffffffffffffffffffffffffffff168273ffffffffffffffffffffffffffffffffffffffff161415610ac4576040517f8f4eb60400000000000000000000000000000000000000000000000000000000815260040160405180910390fd5b67ffffffffffffffff600560008473ffffffffffffffffffffffffffffffffffffffff1673ffffffffffffffffffffffffffffffffffffffff16815260200190815260200160002054169050919050565b606060038054610b2490611c15565b80601f0160208091040260200160405190810160405280929190818152602001828054610b5090611c15565b8015610b9d5780601f10610b7257610100808354040283529160200191610b9d565b820191906000526020600020905b815481529060010190602001808311610b8057829003601f168201915b5050505050905090565b60011515600860003373ffffffffffffffffffffffffffffffffffffffff1673ffffffffffffffffffffffffffffffffffffffff16815260200190815260200160002060009054906101000a90505050610c013382611177565b50565b610c0c610fd7565b73ffffffffffffffffffffffffffffffffffffffff168273ffffffffffffffffffffffffffffffffffffffff161415610c71576040517fb06307db00000000000000000000000000000000000000000000000000000000815260040160405180910390fd5b8060076000610c7e610fd7565b73ffffffffffffffffffffffffffffffffffffffff1673ffffffffffffffffffffffffffffffffffffffff16815260200190815260200160002060008473ffffffffffffffffffffffffffffffffffffffff1673ffffffffffffffffffffffffffffffffffffffff16815260200190815260200160002060006101000a81548160ff0219169083151502179055508173ffffffffffffffffffffffffffffffffffffffff16610d2b610fd7565b73ffffffffffffffffffffffffffffffffffffffff167f17307eab39ab6107e8899845ad3d59bd9653f200f220920489ca2b5937696c3183604051610d709190611a6e565b60405180910390a35050565b610d87848484610705565b60008373ffffffffffffffffffffffffffffffffffffffff163b14610de957610db284848484611195565b610de8576040517fd1a57ed600000000000000000000000000000000000000000000000000000000815260040160405180910390fd5b5b50505050565b6060610dfa82610f78565b610e30576040517fa14c4b5000000000000000000000000000000000000000000000000000000000815260040160405180910390fd5b6000610e3a6112f5565b9050600081511415610e5b5760405180602001604052806000815250610e86565b80610e658461130c565b604051602001610e769291906119e3565b6040516020818303038152906040525b915050919050565b6000600860008373ffffffffffffffffffffffffffffffffffffffff1673ffffffffffffffffffffffffffffffffffffffff16815260200190815260200160002060009054906101000a900460ff169050919050565b6000600760008473ffffffffffffffffffffffffffffffffffffffff1673ffffffffffffffffffffffffffffffffffffffff16815260200190815260200160002060008373ffffffffffffffffffffffffffffffffffffffff1673ffffffffffffffffffffffffffffffffffffffff16815260200190815260200160002060009054906101000a900460ff16905092915050565b600081610f83610fdf565b11158015610f92575060005482105b8015610fd0575060007c0100000000000000000000000000000000000000000000000000000000600460008581526020019081526020016000205416145b9050919050565b600033905090565b600090565b60008082905080610ff3610fdf565b1161107b5760005481101561107a5760006004600083815260200190815260200160002054905060007c010000000000000000000000000000000000000000000000000000000082161415611078575b600081141561106e576004600083600190039350838152602001908152602001600020549050611043565b80925050506110ad565b505b5b6040517fdf2d9b4200000000000000000000000000000000000000000000000000000000815260040160405180910390fd5b919050565b6000806000600690508360005280602052604060002092508254915050915091565b600073ffffffffffffffffffffffffffffffffffffffff8316925073ffffffffffffffffffffffffffffffffffffffff821691508382148383141790509392505050565b50505050565b60008060e883901c905060e8611135868684611366565b62ffffff16901b9150509392505050565b600073ffffffffffffffffffffffffffffffffffffffff83169250814260a01b178317905092915050565b50505050565b61119182826040518060200160405280600081525061136f565b5050565b60008373ffffffffffffffffffffffffffffffffffffffff1663150b7a026111bb610fd7565b8786866040518563ffffffff1660e01b81526004016111dd9493929190611a22565b602060405180830381600087803b1580156111f757600080fd5b505af192505050801561122857506040513d601f19601f8201168201806040525081019061122591906118b9565b60015b6112a2573d8060008114611258576040519150601f19603f3d011682016040523d82523d6000602084013e61125d565b606091505b5060008151141561129a576040517fd1a57ed600000000000000000000000000000000000000000000000000000000815260040160405180910390fd5b805181602001fd5b63150b7a0260e01b7bffffffffffffffffffffffffffffffffffffffffffffffffffffffff1916817bffffffffffffffffffffffffffffffffffffffffffffffffffffffff191614915050949350505050565b606060405180602001604052806000815250905090565b60606080604051019050806040528082600183039250600a81066030018353600a810490505b801561135257600183039250600a81066030018353600a81049050611332565b508181036020830392508083525050919050565b60009392505050565b611379838361140c565b60008373ffffffffffffffffffffffffffffffffffffffff163b1461140757600080549050600083820390505b6113b96000868380600101945086611195565b6113ef576040517fd1a57ed600000000000000000000000000000000000000000000000000000000815260040160405180910390fd5b8181106113a657816000541461140457600080fd5b50505b505050565b600080549050600073ffffffffffffffffffffffffffffffffffffffff168373ffffffffffffffffffffffffffffffffffffffff161415611479576040517f2e07630000000000000000000000000000000000000000000000000000000000815260040160405180910390fd5b60008214156114b4576040517fb562e8dd00000000000000000000000000000000000000000000000000000000815260040160405180910390fd5b6114c16000848385611118565b600160406001901b178202600560008573ffffffffffffffffffffffffffffffffffffffff1673ffffffffffffffffffffffffffffffffffffffff1681526020019081526020016000206000828254019250508190555061153883611529600086600061111e565b611532856115e0565b17611146565b60046000838152602001908152602001600020819055506000819050600083830190505b818060010192508573ffffffffffffffffffffffffffffffffffffffff16600073ffffffffffffffffffffffffffffffffffffffff167fddf252ad1be2c89b69c2b068fc378daa952ba7f163c4a11628f55a4df523b3ef60405160405180910390a480821061155c578060008190555050506115db6000848385611171565b505050565b60006001821460e11b9050919050565b60006116036115fe84611aeb565b611ac6565b90508281526020810184848401111561161f5761161e611cdb565b5b61162a848285611bd3565b509392505050565b60008135905061164181611cfb565b92915050565b60008135905061165681611d12565b92915050565b60008135905061166b81611d29565b92915050565b60008151905061168081611d29565b92915050565b600082601f83011261169b5761169a611cd6565b5b81356116ab8482602086016115f0565b91505092915050565b6000813590506116c381611d40565b92915050565b6000602082840312156116df576116de611ce5565b5b60006116ed84828501611632565b91505092915050565b6000806040838503121561170d5761170c611ce5565b5b600061171b85828601611632565b925050602061172c85828601611632565b9150509250929050565b60008060006060848603121561174f5761174e611ce5565b5b600061175d86828701611632565b935050602061176e86828701611632565b925050604061177f868287016116b4565b9150509250925092565b600080600080608085870312156117a3576117a2611ce5565b5b60006117b187828801611632565b94505060206117c287828801611632565b93505060406117d3878288016116b4565b925050606085013567ffffffffffffffff8111156117f4576117f3611ce0565b5b61180087828801611686565b91505092959194509250565b6000806040838503121561182357611822611ce5565b5b600061183185828601611632565b925050602061184285828601611647565b9150509250929050565b6000806040838503121561186357611862611ce5565b5b600061187185828601611632565b9250506020611882858286016116b4565b9150509250929050565b6000602082840312156118a2576118a1611ce5565b5b60006118b08482850161165c565b91505092915050565b6000602082840312156118cf576118ce611ce5565b5b60006118dd84828501611671565b91505092915050565b6000602082840312156118fc576118fb611ce5565b5b600061190a848285016116b4565b91505092915050565b61191c81611b5f565b82525050565b61192b81611b71565b82525050565b600061193c82611b1c565b6119468185611b32565b9350611956818560208601611be2565b61195f81611cea565b840191505092915050565b600061197582611b27565b61197f8185611b43565b935061198f818560208601611be2565b61199881611cea565b840191505092915050565b60006119ae82611b27565b6119b88185611b54565b93506119c8818560208601611be2565b80840191505092915050565b6119dd81611bc9565b82525050565b60006119ef82856119a3565b91506119fb82846119a3565b91508190509392505050565b6000602082019050611a1c6000830184611913565b92915050565b6000608082019050611a376000830187611913565b611a446020830186611913565b611a5160408301856119d4565b8181036060830152611a638184611931565b905095945050505050565b6000602082019050611a836000830184611922565b92915050565b60006020820190508181036000830152611aa3818461196a565b905092915050565b6000602082019050611ac060008301846119d4565b92915050565b6000611ad0611ae1565b9050611adc8282611c47565b919050565b6000604051905090565b600067ffffffffffffffff821115611b0657611b05611ca7565b5b611b0f82611cea565b9050602081019050919050565b600081519050919050565b600081519050919050565b600082825260208201905092915050565b600082825260208201905092915050565b600081905092915050565b6000611b6a82611ba9565b9050919050565b60008115159050919050565b60007fffffffff0000000000000000000000000000000000000000000000000000000082169050919050565b600073ffffffffffffffffffffffffffffffffffffffff82169050919050565b6000819050919050565b82818337600083830152505050565b60005b83811015611c00578082015181840152602081019050611be5565b83811115611c0f576000848401525b50505050565b60006002820490506001821680611c2d57607f821691505b60208210811415611c4157611c40611c78565b5b50919050565b611c5082611cea565b810181811067ffffffffffffffff82111715611c6f57611c6e611ca7565b5b80604052505050565b7f4e487b7100000000000000000000000000000000000000000000000000000000600052602260045260246000fd5b7f4e487b7100000000000000000000000000000000000000000000000000000000600052604160045260246000fd5b600080fd5b600080fd5b600080fd5b600080fd5b6000601f19601f8301169050919050565b611d0481611b5f565b8114611d0f57600080fd5b50565b611d1b81611b71565b8114611d2657600080fd5b50565b611d3281611b7d565b8114611d3d57600080fd5b50565b611d4981611bc9565b8114611d5457600080fd5b5056fea2646970667358221220b84431c3ca105578e9d8081117a4875eb220b5516d0b5c3513826d4cf47bf2e364736f6c63430008070033",
  "linkReferences": {},
  "deployedLinkReferences": {}
}